{
  "_format": "hh-sol-artifact-1",
  "contractName": "Todolist",
  "sourceName": "contracts/Todolist.sol",
  "abi": [
    {
      "inputs": [],
      "name": "actual_count",
      "outputs": [
        {
          "internalType": "uint256",
          "name": "",
          "type": "uint256"
        }
      ],
      "stateMutability": "view",
      "type": "function"
    },
    {
      "inputs": [],
      "name": "admin",
      "outputs": [
        {
          "internalType": "address",
          "name": "",
          "type": "address"
        }
      ],
      "stateMutability": "view",
      "type": "function"
    },
    {
      "inputs": [
        {
          "internalType": "uint256",
          "name": "id",
          "type": "uint256"
        }
      ],
      "name": "check",
      "outputs": [],
      "stateMutability": "nonpayable",
      "type": "function"
    },
    {
      "inputs": [],
      "name": "count",
      "outputs": [
        {
          "internalType": "uint256",
          "name": "",
          "type": "uint256"
        }
      ],
      "stateMutability": "view",
      "type": "function"
    },
    {
      "inputs": [
        {
          "internalType": "string",
          "name": "content",
          "type": "string"
        }
      ],
      "name": "create_task",
      "outputs": [],
      "stateMutability": "nonpayable",
      "type": "function"
    },
    {
      "inputs": [
        {
          "internalType": "address",
          "name": "",
          "type": "address"
        },
        {
          "internalType": "uint256",
          "name": "",
          "type": "uint256"
        }
      ],
      "name": "tasks",
      "outputs": [
        {
          "internalType": "uint256",
          "name": "id",
          "type": "uint256"
        },
        {
          "internalType": "string",
          "name": "content",
          "type": "string"
        },
        {
          "internalType": "bool",
          "name": "check",
          "type": "bool"
        }
      ],
      "stateMutability": "view",
      "type": "function"
    },
    {
      "inputs": [
        {
          "internalType": "address",
          "name": "",
          "type": "address"
        }
      ],
      "name": "tracker",
      "outputs": [
        {
          "internalType": "uint256",
          "name": "",
          "type": "uint256"
        }
      ],
      "stateMutability": "view",
      "type": "function"
    }
  ],
  "bytecode": "0x608060405234801561001057600080fd5b50610cd0806100206000396000f3fe608060405234801561001057600080fd5b506004361061007d5760003560e01c80635f72f4501161005b5780635f72f450146100ec5780637149d2e414610108578063e5ae7a0a1461013a578063f851a440146101585761007d565b806306661abd1461008257806318a34f3a146100a05780632e22c0b7146100d0575b600080fd5b61008a610176565b604051610097919061052d565b60405180910390f35b6100ba60048036038101906100b591906105ba565b61017c565b6040516100c7919061052d565b60405180910390f35b6100ea60048036038101906100e5919061072d565b610194565b005b610106600480360381019061010191906107a2565b61036c565b005b610122600480360381019061011d91906107cf565b6103db565b604051610131939291906108a9565b60405180910390f35b6101426104a7565b60405161014f919061052d565b60405180910390f35b6101606104ee565b60405161016d91906108f6565b60405180910390f35b60005481565b60036020528060005260406000206000915090505481565b6000808154809291906101a690610940565b91905055506001600360003373ffffffffffffffffffffffffffffffffffffffff1673ffffffffffffffffffffffffffffffffffffffff168152602001908152602001600020546101f79190610988565b600360003373ffffffffffffffffffffffffffffffffffffffff1673ffffffffffffffffffffffffffffffffffffffff168152602001908152602001600020819055506040518060600160405280600360003373ffffffffffffffffffffffffffffffffffffffff1673ffffffffffffffffffffffffffffffffffffffff16815260200190815260200160002054815260200182815260200160001515815250600260003373ffffffffffffffffffffffffffffffffffffffff1673ffffffffffffffffffffffffffffffffffffffff1681526020019081526020016000206000600360003373ffffffffffffffffffffffffffffffffffffffff1673ffffffffffffffffffffffffffffffffffffffff1681526020019081526020016000205481526020019081526020016000206000820151816000015560208201518160010190816103459190610bc8565b5060408201518160020160006101000a81548160ff02191690831515021790555090505050565b6001600260003373ffffffffffffffffffffffffffffffffffffffff1673ffffffffffffffffffffffffffffffffffffffff168152602001908152602001600020600083815260200190815260200160002060020160006101000a81548160ff02191690831515021790555050565b600260205281600052604060002060205280600052604060002060009150915050806000015490806001018054610411906109eb565b80601f016020809104026020016040519081016040528092919081815260200182805461043d906109eb565b801561048a5780601f1061045f5761010080835404028352916020019161048a565b820191906000526020600020905b81548152906001019060200180831161046d57829003601f168201915b5050505050908060020160009054906101000a900460ff16905083565b6000600360003373ffffffffffffffffffffffffffffffffffffffff1673ffffffffffffffffffffffffffffffffffffffff16815260200190815260200160002054905090565b600160009054906101000a900473ffffffffffffffffffffffffffffffffffffffff1681565b6000819050919050565b61052781610514565b82525050565b6000602082019050610542600083018461051e565b92915050565b6000604051905090565b600080fd5b600080fd5b600073ffffffffffffffffffffffffffffffffffffffff82169050919050565b60006105878261055c565b9050919050565b6105978161057c565b81146105a257600080fd5b50565b6000813590506105b48161058e565b92915050565b6000602082840312156105d0576105cf610552565b5b60006105de848285016105a5565b91505092915050565b600080fd5b600080fd5b6000601f19601f8301169050919050565b7f4e487b7100000000000000000000000000000000000000000000000000000000600052604160045260246000fd5b61063a826105f1565b810181811067ffffffffffffffff8211171561065957610658610602565b5b80604052505050565b600061066c610548565b90506106788282610631565b919050565b600067ffffffffffffffff82111561069857610697610602565b5b6106a1826105f1565b9050602081019050919050565b82818337600083830152505050565b60006106d06106cb8461067d565b610662565b9050828152602081018484840111156106ec576106eb6105ec565b5b6106f78482856106ae565b509392505050565b600082601f830112610714576107136105e7565b5b81356107248482602086016106bd565b91505092915050565b60006020828403121561074357610742610552565b5b600082013567ffffffffffffffff81111561076157610760610557565b5b61076d848285016106ff565b91505092915050565b61077f81610514565b811461078a57600080fd5b50565b60008135905061079c81610776565b92915050565b6000602082840312156107b8576107b7610552565b5b60006107c68482850161078d565b91505092915050565b600080604083850312156107e6576107e5610552565b5b60006107f4858286016105a5565b92505060206108058582860161078d565b9150509250929050565b600081519050919050565b600082825260208201905092915050565b60005b8381101561084957808201518184015260208101905061082e565b60008484015250505050565b60006108608261080f565b61086a818561081a565b935061087a81856020860161082b565b610883816105f1565b840191505092915050565b60008115159050919050565b6108a38161088e565b82525050565b60006060820190506108be600083018661051e565b81810360208301526108d08185610855565b90506108df604083018461089a565b949350505050565b6108f08161057c565b82525050565b600060208201905061090b60008301846108e7565b92915050565b7f4e487b7100000000000000000000000000000000000000000000000000000000600052601160045260246000fd5b600061094b82610514565b91507fffffffffffffffffffffffffffffffffffffffffffffffffffffffffffffffff820361097d5761097c610911565b5b600182019050919050565b600061099382610514565b915061099e83610514565b92508282019050808211156109b6576109b5610911565b5b92915050565b7f4e487b7100000000000000000000000000000000000000000000000000000000600052602260045260246000fd5b60006002820490506001821680610a0357607f821691505b602082108103610a1657610a156109bc565b5b50919050565b60008190508160005260206000209050919050565b60006020601f8301049050919050565b600082821b905092915050565b600060088302610a7e7fffffffffffffffffffffffffffffffffffffffffffffffffffffffffffffffff82610a41565b610a888683610a41565b95508019841693508086168417925050509392505050565b6000819050919050565b6000610ac5610ac0610abb84610514565b610aa0565b610514565b9050919050565b6000819050919050565b610adf83610aaa565b610af3610aeb82610acc565b848454610a4e565b825550505050565b600090565b610b08610afb565b610b13818484610ad6565b505050565b5b81811015610b3757610b2c600082610b00565b600181019050610b19565b5050565b601f821115610b7c57610b4d81610a1c565b610b5684610a31565b81016020851015610b65578190505b610b79610b7185610a31565b830182610b18565b50505b505050565b600082821c905092915050565b6000610b9f60001984600802610b81565b1980831691505092915050565b6000610bb88383610b8e565b9150826002028217905092915050565b610bd18261080f565b67ffffffffffffffff811115610bea57610be9610602565b5b610bf482546109eb565b610bff828285610b3b565b600060209050601f831160018114610c325760008415610c20578287015190505b610c2a8582610bac565b865550610c92565b601f198416610c4086610a1c565b60005b82811015610c6857848901518255600182019150602085019450602081019050610c43565b86831015610c855784890151610c81601f891682610b8e565b8355505b6001600288020188555050505b50505050505056fea26469706673582212205f826978415704c8a6d11924a04ab794907a339f07afa12b631a13bb4885649164736f6c63430008130033",
  "linkReferences": {},
  "deployedLinkReferences": {}
}